:100000000C9463000C948B000C948B000C948B006C
:100010000C948B000C948B000C948B000C947D053D
:100020000C948B000C948B000C948B000C948B0024
:100030000C948B000C948B000C948B000C948B0014
:100040000C9433050C948B000C94FF050C94D9058B
:100050000C948B000C948B000C948B000C948B00F4
:100060000C948B000C948B000000000024002700EF
:100070002A000000000023002600290000000008DC
:10008000000201000003040700000000000000005F
:10009000010204081020408001020408102001021F
:1000A0000408102000000000250028002B00040494
:1000B0000404040404040202020202020303030310
:1000C00003030200310611241FBECFEFD8E0DEBFCC
:1000D000CDBF12E0A0E0B1E0E4E9F5E102C0059097
:1000E0000D92AC35B107D9F723E0ACE5B2E001C021
:1000F0001D92AE3BB207E1F710E0C3E6D0E004C0CA
:100100002197FE010E94C20AC236D107C9F70E9498
:10011000BE060C94C80A0C94000096E0899FD0019A
:100120001124A15BBC4F90967C936E935F9791E0F6
:1001300091969C939197E091BC03F091BD039091AF
:10014000BB03992339F0309751F0811108C0809199
:100150006B030994309719F05C968C91FACF08954F
:10016000833081F028F4813099F08230A9F008952D
:100170008730A9F08830C9F08430B1F480918000D4
:100180008F7D03C0809180008F77809380000895D9
:1001900084B58F7784BD089584B58F7DFBCF809122
:1001A000B0008F778093B00008958091B0008F7D6C
:1001B000F9CFCF93DF93282F30E0F901E458FF4FB8
:1001C0008491F901E057FF4FD491F901E255FF4FB7
:1001D000C491CC23A1F081110E94B000EC2FF0E07B
:1001E000EE0FFF1FEE58FF4FA591B491EC91ED2358
:1001F00081E090E009F480E0DF91CF91089580E004
:1002000090E0FACF1F93CF93DF93282F30E0F901CE
:10021000E458FF4F8491F901E057FF4FD491F90161
:10022000E255FF4FC491CC23A9F0162F81110E94F3
:10023000B000EC2FF0E0EE0FFF1FEC55FF4FA59143
:10024000B4918FB7F894EC91111108C0D095DE23CA
:10025000DC938FBFDF91CF911F910895DE2BF8CFF4
:10026000CF93DF9390E0FC01E057FF4F249182553C
:100270009F4FFC0184918823C9F090E0880F991F5B
:10028000FC01E859FF4FA591B491FC01EC55FF4FDB
:10029000C591D49161110DC09FB7F8948C912095B0
:1002A00082238C938881282328839FBFDF91CF915D
:1002B0000895623051F49FB7F8943C91822F809555
:1002C00083238C93E8812E2BEFCF8FB7F894EC919A
:1002D0002E2B2C938FBFEACFCF92DF92EF92FF921B
:1002E000CF936C0180910201833049F08F3F09F474
:1002F0006EC0CF91FF90EF90DF90CF900895E2EC29
:10030000F0E0C491C7FDF5CF61E083E00E943001C9
:10031000CC2319F0C23009F0CBC0F12CE12C68E4F9
:1003200078EE81E090E0A70196010E945F0ABA0191
:10033000A9014150510961097109CC2309F4F7C0A1
:10034000C23009F0B3C04F3F51056105710509F096
:100350000CF4F6C064E274EF80E090E0A70196012F
:100360000E945F0ABA01A90141505109610971094E
:1003700095E04F3F51056105710509F008F4E1C0B2
:1003800062E17AE780E090E0A70196010E945F0AAF
:10039000BA01A9014150510961097109C111DEC0B9
:1003A00094E085B5887F892B85BD47BD8FEF9FEF92
:1003B000DC018093AE029093AF02A093B002B093A1
:1003C000B10280916E00826080936E0092CF83E0D4
:1003D00080930201E2ECF0E0C491CF3F09F489CFB1
:1003E000C13021F150F0C23009F43EC0C7FD81CFC9
:1003F00061E083E00E9430018DCF14BC15BC84B550
:10040000826084BD85B5816085BDE1EBF0E0E4915B
:10041000F0E0EE0FFF1FEC55FF4F85919491E3E95B
:10042000F0E0E491E093A502C0E06ECF109280006E
:10043000109281008091810088608093810080917A
:100440008100816080938100E1EBF0E0E491F0E0D5
:10045000EE0FFF1FEC55FF4F85919491E3E9F0E01B
:10046000E491E093A40250CF1092B0001092B1003A
:100470008091B00082608093B0008091B100816073
:100480008093B100E1EBF0E0E491F0E0EE0FFF1FAC
:10049000EC55FF4F859194919093A3028093A20213
:1004A000E3E9F0E0E491E093A1022ECF94E061CF84
:1004B000960150E040E060E072E18AE790E00E943F
:1004C0005F0ABA01A9014150510961097109C1309E
:1004D000F1F580918100887F816080938100509345
:1004E0008900409388008FEF9FEFDC018093AA0280
:1004F0009093AB02A093AC02B093AD0280916F00D9
:10050000826080936F00F5CE4093B3008FEF9FEF32
:10051000DC018093A6029093A702A093A802B09357
:10052000A90280917000826080937000E2CE93E017
:100530004F3F51056105710511F00CF021CF31CF0E
:1005400094E08091B100887F892B8093B100C13005
:1005500031F2C230C9F2C111CCCE27CF96E0F1CF33
:100560003FB7F89480919D0290919E02A0919F02C6
:10057000B091A00226B5A89B05C02F3F19F00196A7
:10058000A11DB11D3FBFBA2FA92F982F8827BC01ED
:10059000CD01620F711D811D911D42E0660F771F15
:1005A000881F991F4A95D1F708958F929F92AF9215
:1005B000BF92CF92DF92EF92FF924B015C010E94BB
:1005C000B0026B017C010E94B0026C197D098E099A
:1005D0009F09683E734081059105A8F321E0821AC6
:1005E0009108A108B10888EEC80E83E0D81EE11C6E
:1005F000F11C81149104A104B10429F7FF90EF903C
:10060000DF90CF90BF90AF909F908F9008952FB7BD
:10061000F8946091990270919A0280919B02909156
:100620009C022FBF08950F931F93CF93DF93C82F82
:10063000D62F86E0C89FF0011124E15BFC4F11A288
:10064000878D90A181309105F1F058F082309105AD
:10065000F1F1039709F440C0DF91CF911F910F9101
:1006600008956623C9F361E070E08C2F0E948D002D
:100670000E9407036093A7037093A8038093A903C4
:100680009093AA03E9CF0E9407030091A70310915A
:10069000A8032091A9033091AA03AB01BC01401B20
:1006A000510B620B730B8091B9039091BA03B0E0C8
:1006B000A0E084179507A607B70748F462E070E04A
:1006C0008C2FDF91CF911F910F910C948D0063E0DF
:1006D00070E0D111C1CFF4CF70E060E0F1CF862F90
:1006E000642F0C943001862F642F0C940201862F06
:1006F0000C94D9009091020189130BC0E2ECF0E058
:10070000E4919FEF90930201E13049F028F0E2304C
:1007100061F060E00C94020110926E00FACF9091AB
:100720006F009D7F90936F00F4CF909170009D7F3C
:100730009093700091E09093B0009091B100987FF9
:1007400094609093B1001092B300E3CFAF92BF9248
:10075000CF92DF92EF92FF920F931F93CF93DF938D
:100760006C017B018B01040F151FEB015E01AE18BC
:10077000BF08C017D10759F06991D601ED91FC91DE
:100780000190F081E02DC6010995892B79F7C5010B
:10079000DF91CF911F910F91FF90EF90DF90CF905D
:1007A000BF90AF900895FC01538D448D252F30E00C
:1007B000842F90E0821B930B541710F0CF9608956E
:1007C00001970895FC01918D828D981761F0A28D9B
:1007D000AE0FBF2FB11D5D968C91928D9F5F9F7361
:1007E000928F90E008958FEF9FEF0895FC01918D17
:1007F000828D981731F0828DE80FF11D858D90E084
:1008000008958FEF9FEF0895FC01918D228D892F20
:1008100090E0805C9F4F821B91098F739927089508
:1008200082EB92E00E94040421E0892B09F420E08D
:10083000822F089580E090E0892B29F00E94100417
:1008400081110C9400000895FC01A48DA80FB92F0C
:10085000B11DA35ABF4F2C91848D90E001968F73E8
:100860009927848FA689B7892C93A089B1898C9107
:10087000837080648C93938D848D981306C0028856
:10088000F389E02D80818F7D80830895EF92FF9220
:100890000F931F93CF93DF93EC0181E0888F9B8DA3
:1008A0008C8D98131AC0E889F989808185FF15C05D
:1008B0009FB7F894EE89FF896083E889F989808180
:1008C0008370806480839FBF81E090E0DF91CF914F
:1008D0001F910F91FF90EF900895F62E0B8D10E071
:1008E0000F5F1F4F0F731127E02E8C8D8E110CC0E0
:1008F0000FB607FCFACFE889F989808185FFF5CF2B
:10090000CE010E942404F1CFEB8DEC0FFD2FF11DE1
:10091000E35AFF4FF0829FB7F8940B8FEA89FB8967
:1009200080818062CFCFCF93DF93EC01888D8823C5
:10093000B9F0AA89BB89E889F9898C9185FD03C042
:10094000808186FD0DC00FB607FCF7CF8C9185FF27
:10095000F2CF808185FFEDCFCE010E942404E9CF44
:10096000DF91CF91089561E08DE00E94020188EC53
:1009700090E00E946C0168EE73E080E090E00E94DD
:10098000D50283E00E947A0360E08DE00E940201BC
:1009900081E090E0909301018093000160ED77E0A9
:1009A00080E090E00C94D502FC0101900020E9F772
:1009B0003197AF01481B590BBC0182EB92E00C94BC
:1009C000A6038F929F92AF92BF920F931F93CF93E4
:1009D000DF93CDB7DEB7A1970FB6F894DEBF0FBE99
:1009E000CDBF19A2423008F44AE08E010F5D1F4FBF
:1009F000842E912CB12CA12CA50194010E94910A66
:100A0000E62FB901CA01EA30F4F4E05DD801EE93B3
:100A10008D01232B242B252B79F790E080E0109774
:100A200019F0CD010E94D404A1960FB6F894DEBF50
:100A30000FBECDBFDF91CF911F910F91BF90AF90AF
:100A40009F908F900895E95CE1CFCF93DF930E9450
:100A5000D404EC018BE391E00E94D4048C0F9D1F21
:100A6000DF91CF9108951F920F920FB60F9211242C
:100A70002F933F938F939F93AF93BF93809199024E
:100A800090919A02A0919B02B0919C0230919802A1
:100A900023E0230F2D3758F50196A11DB11D20939A
:100AA00098028093990290939A02A0939B02B0932C
:100AB0009C0280919D0290919E02A0919F02B09114
:100AC000A0020196A11DB11D80939D0290939E02EC
:100AD000A0939F02B093A002BF91AF919F918F917D
:100AE0003F912F910F900FBE0F901F90189526E801
:100AF000230F0296A11DB11DD2CF1F920F920FB6E8
:100B00000F9211242F933F934F935F936F937F9393
:100B10008F939F93AF93BF93EF93FF938091A60220
:100B20009091A702A091A802B091A902892B8A2BCB
:100B30008B2BD1F19091A102E091A202F091A3023E
:100B40008081892780838091A6029091A702A0913D
:100B5000A802B091A902181619061A061B069CF4E1
:100B60008091A6029091A702A091A802B091A9023B
:100B70000197A109B1098093A6029093A702A093BF
:100B8000A802B093A902FF91EF91BF91AF919F91FD
:100B90008F917F916F915F914F913F912F910F9026
:100BA0000FBE0F901F901895809102010E947A034A
:100BB000EACF1F920F920FB60F9211242F933F93FB
:100BC0004F935F936F937F938F939F93AF93BF9355
:100BD000EF93FF9382EB92E00E942404FF91EF9148
:100BE000BF91AF919F918F917F916F915F914F9145
:100BF0003F912F910F900FBE0F901F9018951F924D
:100C00000F920FB60F9211242F938F939F93EF9310
:100C1000FF93E091C202F091C3028081E091C8028B
:100C2000F091C90282FD1BC090818091CB028F5F41
:100C30008F732091CC02821741F0E091CB02F0E05B
:100C4000EE54FD4F958F8093CB02FF91EF919F91D2
:100C50008F912F910F900FBE0F901F90189580814C
:100C6000F4CF1092B5021092B40288EE93E0A0E0A7
:100C7000B0E08093B6029093B702A093B802B0930D
:100C8000B90283E291E09093B3028093B20285ECC3
:100C900090E09093BF028093BE0284EC90E090932A
:100CA000C1028093C00280EC90E09093C3028093D5
:100CB000C20281EC90E09093C5028093C40282EC62
:100CC00090E09093C7028093C60286EC90E09093E8
:100CD000C9028093C8021092CB021092CC021092EB
:100CE000CD021092CE021092510310925503109231
:100CF00054031092560385E391E090935003809340
:100D00004F03EBE6F3E010821482138215823696CD
:100D100083E0E73AF807B9F787E091E09093B203F0
:100D20008093B10383E091E09093B4038093B30385
:100D300084E08093B5038093B6038BE091E09093B9
:100D4000B0038093AF038AE090E09093B803809360
:100D5000B70384EF91E09093BA038093B9031092A4
:100D6000BD031092BC031092AB031092AC0310921F
:100D7000AD031092AE031092BB030895CF93DF939F
:100D800000D000D000D0CDB7DEB7789484B58260B3
:100D900084BD84B5816084BD85B5826085BD85B51F
:100DA000816085BD80916E00816080936E0010929D
:100DB0008100809181008260809381008091810018
:100DC00081608093810080918000816080938000A9
:100DD0008091B10084608093B1008091B000816007
:100DE0008093B00080917A00846080937A00809133
:100DF0007A00826080937A0080917A00816080938B
:100E00007A0080917A00806880937A001092C10005
:100E1000E091C202F091C30282E08083E091BE02C1
:100E2000F091BF021082E091C002F091C1028FECFC
:100E300080831092CA02E091C602F091C70286E058
:100E40008083E091C402F091C5028081806180833B
:100E5000E091C402F091C502808188608083E091B6
:100E6000C402F091C502808180688083E091C40251
:100E7000F091C50280818F7D80838EE391E00E9496
:100E8000250561E08AE00E94300161E08DE00E946A
:100E900030010E940703611571058105910511F06C
:100EA0000E94560A0E94070A209100013091010118
:100EB000220F331F265A3D4F3A8329832AE030E020
:100EC00040E050E00E945F0AE981FA81718360830B
:100ED000212C312C2101239481E691E00E942505EB
:100EE00088E791E00E9425052CE532E03A832983CA
:100EF00089011C821B828091000190910101EB818C
:100F0000FC81E817F9076CF5F801C190D1908F01C9
:100F10000D2C000CEE08FF084AE0C701B601F7FEF1
:100F20000DC06DE282EB92E00E94460466277727AF
:100F3000CB016C197D098E099F094AE00E94E104EA
:100F40008BE391E00E94D4046CED75E080E090E0CA
:100F50000E94D5022B813C812F5F3F4F3C832B8326
:100F6000CACF84E991E00E94250564EF71E080E03A
:100F700090E00E94D5028DEA91E00E942505D12CD7
:100F8000C12C80910001909101019C838B83C81634
:100F9000D9060CF0A1C18EEB91E00E94D4040E940E
:100FA00007034B015C0191E09093BB030E94070390
:100FB0000091AB031091AC032091AD033091AE03CF
:100FC000AB01BC01401B510B620B730B8091B7034B
:100FD0009091B803B0E0A0E084179507A607B70783
:100FE00008F046C11B828091B503EB81E81778F4C5
:100FF000E091B103F091B2032B81E20FF11D62E0A9
:1010000080810E9430013B813F5F3B83ECCF712C9C
:101010008091B603781608F06FC0072D10E0E091BC
:10102000B303F091B403E00FF11F61E080810E94EF
:101030003001E091B303F091B403E00FF11F60E0E1
:1010400080810E940201D201C101072C04C0880FD7
:10105000991FAA1FBB1F0A94D2F79C838B837C0124
:10106000E094F094612C8091B503681670F5862D9C
:1010700090E09E838D83E091B103F091B2039C01D7
:10108000E20FF31F80810E94D900ED81FE8134962A
:10109000FE83ED83892B71F4EE0FFF1FE15BFC4FA4
:1010A000808191812B813C81822B932B9183808342
:1010B0006394D9CFED81FE81EE0FFF1FE15BFC4F02
:1010C000808191818E219F21F1CFE091B303F09136
:1010D000B403E00FF11F61E080810E940201809162
:1010E000B3039091B403080F191F60E0F8018081E9
:1010F0000E94300173948CCF0FE413E01C830B83A8
:10110000EB81FC81878D90A1892B31F4148E2FEF18
:101110003FEF368F258F11A28B819C8106969C8391
:101120008B83EBE8F3E0E817F90751F7F12C809196
:10113000B503F81608F053C0E12C8F2D90E0880F0E
:10114000991F9C01295A3C4F39012091B603E216A0
:1011500008F043C0F301608171810E2C02C07695C6
:1011600067950A94E2F7F29E900111242E0D311D2D
:10117000EFE4F3E080E0458D568D2417350709F440
:10118000F8C08F5F36968A30B1F760FF24C0EFE475
:10119000F3E090E080E0448D411118C0E091AF038E
:1011A000F091B003E20FF31F408156E0589FF00129
:1011B000599FF00D1124E15BFC4F448F368F258F32
:1011C00010A2178E61E00E94130305C001963696A7
:1011D0008A30910501F7E394B8CFF394A8CFF12CAE
:1011E000F80181A18111F82E0A5F1F4F2B813C81EC
:1011F00002171307A9F70E9407036093AB037093CC
:10120000AC038093AD039093AE03FF2089F18091EE
:101210007003882369F180916E0390916F030197A9
:1012200039F530916B033B830E94070368197909F4
:101230008A099B096938734181059105E8F082EDBF
:1012400091E00E9425050E94B30464E670E080E00E
:1012500090E00E94D502E0E0F0E0EF2B09F43CCEF4
:101260000E941004882309F437CE0E94000034CE77
:101270001092BB031B82D8CF62E370E080E090E065
:101280000E94D5028B81882309F48DCE80538A3049
:1012900090F4E981FA8181919191FA83E9832B811C
:1012A000022E000C330B205331092817390731F077
:1012B00089E092E0C6CF84EE91E0C3CF80E092E077
:1012C0000E94250568EC70E080E090E00E94D50265
:1012D0003FEFC31AD30A55CE61E08AE00E940201B3
:1012E00084EF91E00E946C0168EE73E080E090E092
:1012F0000E94D50283E00E947A0360E08AE00E94A7
:1013000002018B819C818E31910551F10196909360
:1013100001018093000184E192E00E94D404C09016
:101320000001D09001010D2C000CEE08FF084AE0EE
:10133000C701B601F7FE0DC06DE282EB92E00E949C
:10134000460466277727CB016C197D098E099F0912
:101350004AE00E94E1048BE391E00E94D40475CF3F
:1013600084E292E00E94250588E492E00E9425052F
:10137000FFCF617028CF8F929F92AF92BF92CF9292
:10138000DF92EF92FF92CF93DF93EC016881798136
:101390008A819B81611571058105910521F464E2C3
:1013A00079ED8BE597E02DE133EF41E050E00E94CD
:1013B0005F0A49015A019B01AC01A7EAB1E40E940E
:1013C0007E0A6B017C01ACEEB4EFA50194010E9492
:1013D0008C0AC60ED71EE81EF91EF7FE06C081E075
:1013E000C81AD108E10880E8F80AC882D982EA82DE
:1013F000FB82C701B6019F77DF91CF91FF90EF90FD
:10140000DF90CF90BF90AF909F908F9008958F9274
:101410009F92AF92BF92CF92DF92EF92FF92609134
:101420001B0170911C0180911D0190911E0161159D
:1014300071058105910521F464E279ED8BE597E072
:101440002DE133EF41E050E00E945F0A49015A016B
:101450009B01AC01A7EAB1E40E947E0A6B017C010A
:10146000ACEEB4EFA50194010E948C0AC60ED71E03
:10147000E81EF91EF7FE06C081E0C81AD108E1088F
:1014800080E8F80AC0921B01D0921C01E0921D0175
:10149000F0921E01C701B6019F77FF90EF90DF9099
:1014A000CF90BF90AF909F908F90089560931B0155
:1014B00070931C0180931D0190931E010895052EC9
:1014C00097FB1EF400940E94760A57FD07D00E94F5
:1014D000910A07FC03D04EF40C94760A509540957F
:1014E000309521953F4F4F4F5F4F089590958095D0
:1014F000709561957F4F8F4F9F4F08950E94B30A5B
:10150000A59F900DB49F900DA49F800D911D112457
:101510000895B7FF0C947E0A0E947E0A821B930BEB
:101520000895A1E21A2EAA1BBB1BFD010DC0AA1F24
:10153000BB1FEE1FFF1FA217B307E407F50720F03C
:10154000A21BB30BE40BF50B661F771F881F991FB7
:101550001A9469F760957095809590959B01AC0100
:10156000BD01CF010895A29FB001B39FC001A39F09
:10157000700D811D1124911DB29F700D811D1124CC
:10158000911D0895EE0FFF1F0590F491E02D099431
:04159000F894FFCFFD
:101594000100FF060504020C0B08073738392F3405
:1015A40035362A3132332D4F303D2B0100000000F7
:1015B4000000004604A603D30393040404E203F6E4
:1015C40003000000006F03730377030D0A00C2A138
:1015D400C2A1C2A14A7565676F2053696D6F6E2001
:1015E4004469636520496E69636961646F212121DF
:1015F400006D656D6F72697A61206C61207365633B
:1016040075656E6369613A002D2D2D20494E49435D
:10161400494F2044452053454355454E43494120B5
:101624002D2D2D002D2D2D2046494E20444520538F
:10163400454355454E434941202D2D2D0061686F8A
:1016440072612C20696E67726573613A2000496E7D
:10165400677265736120656C206E756D65726F3A93
:101664002000C2A15469656D706F2061676F746159
:10167400646F21005465636C61206E6F206E756D1C
:10168400C3A9726963612076C3A16C6964612E0089
:10169400436F72726563746F00496E636F72726533
:1016A40063746F00506173617320616C206E69769E
:1016B400656C2000C2A148617320636F6D706C6516
:1016C4007461646F20746F646F73206C6F73206E29
:1016D4006976656C65732100C2A14A7565676F20E0
:0C16E4005465726D696E61646F21000036
:00000001FF
